{
  "_format": "hh-sol-artifact-1",
  "contractName": "NexusTrading",
  "sourceName": "contracts/NexusTrading.sol",
  "abi": [
    {
      "inputs": [],
      "stateMutability": "nonpayable",
      "type": "constructor"
    },
    {
      "anonymous": false,
      "inputs": [
        {
          "indexed": true,
          "internalType": "address",
          "name": "user",
          "type": "address"
        },
        {
          "indexed": false,
          "internalType": "uint256",
          "name": "value",
          "type": "uint256"
        }
      ],
      "name": "PortfolioUpdated",
      "type": "event"
    },
    {
      "anonymous": false,
      "inputs": [
        {
          "indexed": true,
          "internalType": "address",
          "name": "user",
          "type": "address"
        },
        {
          "indexed": false,
          "internalType": "uint256",
          "name": "amount",
          "type": "uint256"
        }
      ],
      "name": "Swap",
      "type": "event"
    },
    {
      "inputs": [
        {
          "internalType": "address",
          "name": "",
          "type": "address"
        }
      ],
      "name": "balances",
      "outputs": [
        {
          "internalType": "uint256",
          "name": "",
          "type": "uint256"
        }
      ],
      "stateMutability": "view",
      "type": "function"
    },
    {
      "inputs": [
        {
          "internalType": "address",
          "name": "tokenIn",
          "type": "address"
        },
        {
          "internalType": "address",
          "name": "tokenOut",
          "type": "address"
        },
        {
          "internalType": "uint256",
          "name": "amountIn",
          "type": "uint256"
        }
      ],
      "name": "estimateGas",
      "outputs": [
        {
          "internalType": "uint256",
          "name": "",
          "type": "uint256"
        }
      ],
      "stateMutability": "pure",
      "type": "function"
    },
    {
      "inputs": [
        {
          "internalType": "address",
          "name": "tokenIn",
          "type": "address"
        },
        {
          "internalType": "address",
          "name": "tokenOut",
          "type": "address"
        },
        {
          "internalType": "uint256",
          "name": "amountIn",
          "type": "uint256"
        },
        {
          "internalType": "uint256",
          "name": "minAmountOut",
          "type": "uint256"
        }
      ],
      "name": "executeSwap",
      "outputs": [
        {
          "internalType": "uint256",
          "name": "amountOut",
          "type": "uint256"
        }
      ],
      "stateMutability": "nonpayable",
      "type": "function"
    },
    {
      "inputs": [
        {
          "internalType": "address",
          "name": "user",
          "type": "address"
        }
      ],
      "name": "getBalance",
      "outputs": [
        {
          "internalType": "uint256",
          "name": "",
          "type": "uint256"
        }
      ],
      "stateMutability": "view",
      "type": "function"
    },
    {
      "inputs": [
        {
          "internalType": "address",
          "name": "user",
          "type": "address"
        }
      ],
      "name": "getPortfolio",
      "outputs": [
        {
          "internalType": "uint256",
          "name": "lastUpdate",
          "type": "uint256"
        },
        {
          "internalType": "uint256",
          "name": "totalValue",
          "type": "uint256"
        },
        {
          "internalType": "uint256",
          "name": "swapCount",
          "type": "uint256"
        }
      ],
      "stateMutability": "view",
      "type": "function"
    },
    {
      "inputs": [],
      "name": "owner",
      "outputs": [
        {
          "internalType": "address",
          "name": "",
          "type": "address"
        }
      ],
      "stateMutability": "view",
      "type": "function"
    },
    {
      "inputs": [
        {
          "internalType": "address",
          "name": "tokenIn",
          "type": "address"
        },
        {
          "internalType": "address",
          "name": "tokenOut",
          "type": "address"
        },
        {
          "internalType": "uint256",
          "name": "amountIn",
          "type": "uint256"
        }
      ],
      "name": "simulateSwap",
      "outputs": [
        {
          "internalType": "uint256",
          "name": "expectedAmountOut",
          "type": "uint256"
        }
      ],
      "stateMutability": "pure",
      "type": "function"
    },
    {
      "inputs": [
        {
          "internalType": "address",
          "name": "user",
          "type": "address"
        },
        {
          "internalType": "uint256",
          "name": "newTotalValue",
          "type": "uint256"
        }
      ],
      "name": "updatePortfolioValue",
      "outputs": [],
      "stateMutability": "nonpayable",
      "type": "function"
    },
    {
      "inputs": [
        {
          "internalType": "bytes32",
          "name": "txHash",
          "type": "bytes32"
        }
      ],
      "name": "waitForConfirmation",
      "outputs": [
        {
          "internalType": "bool",
          "name": "",
          "type": "bool"
        }
      ],
      "stateMutability": "pure",
      "type": "function"
    }
  ],
  "bytecode": "0x608060405234801561001057600080fd5b50600080546001600160a01b03191633179055610571806100326000396000f3fe608060405234801561001057600080fd5b50600436106100935760003560e01c80639a44e7f6116100665780639a44e7f614610126578063b07391c01461014a578063c0ad7fdb1461015d578063eb22ae1114610172578063f8b2cb4f146101ba57600080fd5b8063115b0e0e1461009857806327e235e3146100be57806366f8540e146100de5780638da5cb5b146100fb575b600080fd5b6100ab6100a63660046103f0565b6101e3565b6040519081526020015b60405180910390f35b6100ab6100cc36600461042c565b60016020526000908152604090205481565b6100ab6100ec3660046103f0565b6612a6d8e11220009392505050565b60005461010e906001600160a01b031681565b6040516001600160a01b0390911681526020016100b5565b61013a61013436600461044e565b50600190565b60405190151581526020016100b5565b6100ab610158366004610467565b610204565b61017061016b3660046104a9565b610335565b005b61019f61018036600461042c565b6001600160a01b03166000908152600160205260408120544292909190565b604080519384526020840192909252908201526060016100b5565b6100ab6101c836600461042c565b6001600160a01b031660009081526001602052604090205490565b600060646101f28360636104e9565b6101fc9190610506565b949350505050565b60006001600160a01b0385161580159061022657506001600160a01b03841615155b6102685760405162461bcd60e51b815260206004820152600e60248201526d496e76616c696420746f6b656e7360901b60448201526064015b60405180910390fd5b600083116102b85760405162461bcd60e51b815260206004820152601d60248201527f416d6f756e74206d7573742062652067726561746572207468616e2030000000604482015260640161025f565b60646102c58460636104e9565b6102cf9190610506565b336000908152600160205260408120805492935083929091906102f3908490610528565b909155505060405181815233907f562c219552544ec4c9d7a8eb850f80ea152973e315372bf4999fe7c953ea004f9060200160405180910390a2949350505050565b6000546001600160a01b0316331461037b5760405162461bcd60e51b81526020600482015260096024820152682737ba1037bbb732b960b91b604482015260640161025f565b6001600160a01b03821660008181526001602052604090819020839055517ffcfa0761dab6873023e04c2d8e99cefdc3d64ee860c8bdf9742211179e723bed906103c89084815260200190565b60405180910390a25050565b80356001600160a01b03811681146103eb57600080fd5b919050565b60008060006060848603121561040557600080fd5b61040e846103d4565b925061041c602085016103d4565b9150604084013590509250925092565b60006020828403121561043e57600080fd5b610447826103d4565b9392505050565b60006020828403121561046057600080fd5b5035919050565b6000806000806080858703121561047d57600080fd5b610486856103d4565b9350610494602086016103d4565b93969395505050506040820135916060013590565b600080604083850312156104bc57600080fd5b6104c5836103d4565b946020939093013593505050565b634e487b7160e01b600052601160045260246000fd5b8082028115828204841417610500576105006104d3565b92915050565b60008261052357634e487b7160e01b600052601260045260246000fd5b500490565b80820180821115610500576105006104d356fea26469706673582212202534e6b9e1c67ba61110f8a8811b5fe05d5f67629e3f567ea5175ff4463bb0ea64736f6c63430008180033",
  "linkReferences": {},
  "deployedLinkReferences": {}
}